:1000000071C0000081C000007FC000007DC0000002
:100010007BC0000079C0000077C0000075C0000000
:1000200073C0000071C000006FC000006DC0000010
:100030006BC0000069C0000067C0000065C0000020
:1000400063C0000061C000005FC000005DC0000030
:100050005BC0000059C0000057C0000055C0000040
:1000600053C0000086C000004FC000004DC000001B
:100070004BC0000049C0000047C0000045C0000060
:1000800043C0000041C000003FC000003DC0000070
:100090003BC0000039C0000037C0000035C0000080
:1000A00033C0000031C000002FC000002DC0000090
:1000B0002BC0000029C0000027C0000025C00000A0
:1000C00023C0000021C000001FC000001DC00000B0
:1000D0001BC0000019C0000017C0000015C00000C0
:1000E00013C0000011241FBECFEFD1E2DEBFCDBF91
:1000F00000E00CBF22E0A0E0B2E001C01D92A13000
:10010000B207E1F780D081C07BCFF89481B18F60D6
:1001100081B982B1807F82B9EAE0F1E080818861B3
:100120008083EBE0F1E08081886180833B9A439893
:10013000E1ECF0E010821092C00086E08093C200F3
:100140008FE58093C4001092C50088E9808378947D
:10015000089586B1886088B92FEF8FE794E0215029
:1001600080409040E1F700C0000086B1877F88B9E9
:1001700008951F920F920FB60F9211240BB60F9293
:100180002F933F934F935F936F937F938F939F939F
:10019000AF93BF93EF93FF93E6ECF0E08081809301
:1001A00000028083D6DF80910002873711F486E059
:1001B00082B980910002833711F489E082B980917D
:1001C0000002813611F485E082B980910002843604
:1001D00011F48AE082B980910002883709F412B8DC
:1001E000FF91EF91BF91AF919F918F917F916F910F
:1001F0005F914F913F912F910F900BBE0F900FBECB
:0E0200000F901F90189581DFFFCFF894FFCF6D
:00000001FF
